{
  "_format": "hh-sol-artifact-1",
  "contractName": "GeneFlowEncryptedData",
  "sourceName": "contracts/GeneFlowEncryptedData.sol",
  "abi": [
    {
      "anonymous": false,
      "inputs": [
        {
          "indexed": true,
          "internalType": "address",
          "name": "user",
          "type": "address"
        }
      ],
      "name": "DataDeleted",
      "type": "event"
    },
    {
      "anonymous": false,
      "inputs": [
        {
          "indexed": true,
          "internalType": "address",
          "name": "user",
          "type": "address"
        },
        {
          "indexed": false,
          "internalType": "uint256",
          "name": "dataLength",
          "type": "uint256"
        }
      ],
      "name": "DataStored",
      "type": "event"
    },
    {
      "inputs": [],
      "name": "deleteData",
      "outputs": [],
      "stateMutability": "nonpayable",
      "type": "function"
    },
    {
      "inputs": [
        {
          "internalType": "address",
          "name": "user",
          "type": "address"
        }
      ],
      "name": "getData",
      "outputs": [
        {
          "internalType": "bytes",
          "name": "",
          "type": "bytes"
        }
      ],
      "stateMutability": "view",
      "type": "function"
    },
    {
      "inputs": [
        {
          "internalType": "address",
          "name": "user",
          "type": "address"
        }
      ],
      "name": "getDataSize",
      "outputs": [
        {
          "internalType": "uint256",
          "name": "",
          "type": "uint256"
        }
      ],
      "stateMutability": "view",
      "type": "function"
    },
    {
      "inputs": [
        {
          "internalType": "address",
          "name": "user",
          "type": "address"
        }
      ],
      "name": "hasData",
      "outputs": [
        {
          "internalType": "bool",
          "name": "",
          "type": "bool"
        }
      ],
      "stateMutability": "view",
      "type": "function"
    },
    {
      "inputs": [
        {
          "internalType": "bytes",
          "name": "data",
          "type": "bytes"
        }
      ],
      "name": "storeData",
      "outputs": [],
      "stateMutability": "nonpayable",
      "type": "function"
    }
  ],
  "bytecode": "0x6080604052348015600f57600080fd5b50610b868061001f6000396000f3fe608060405234801561001057600080fd5b50600436106100575760003560e01c80631f2e838c1461005c57806338266b221461008c57806379b78a7a146100bc578063ac5c8535146100ec578063e0ba432a14610108575b600080fd5b61007660048036038101906100719190610556565b610112565b604051610083919061059c565b60405180910390f35b6100a660048036038101906100a19190610556565b610166565b6040516100b39190610647565b60405180910390f35b6100d660048036038101906100d19190610556565b610236565b6040516100e39190610684565b60405180910390f35b61010660048036038101906101019190610704565b61028c565b005b610110610375565b005b60008060008373ffffffffffffffffffffffffffffffffffffffff1673ffffffffffffffffffffffffffffffffffffffff168152602001908152602001600020805461015d90610780565b90509050919050565b60606000808373ffffffffffffffffffffffffffffffffffffffff1673ffffffffffffffffffffffffffffffffffffffff16815260200190815260200160002080546101b190610780565b80601f01602080910402602001604051908101604052809291908181526020018280546101dd90610780565b801561022a5780601f106101ff5761010080835404028352916020019161022a565b820191906000526020600020905b81548152906001019060200180831161020d57829003601f168201915b50505050509050919050565b6000806000808473ffffffffffffffffffffffffffffffffffffffff1673ffffffffffffffffffffffffffffffffffffffff168152602001908152602001600020805461028290610780565b9050119050919050565b600082829050116102d2576040517f08c379a00000000000000000000000000000000000000000000000000000000081526004016102c99061080e565b60405180910390fd5b81816000803373ffffffffffffffffffffffffffffffffffffffff1673ffffffffffffffffffffffffffffffffffffffff168152602001908152602001600020918261031f929190610a14565b503373ffffffffffffffffffffffffffffffffffffffff167fe42ab83e51dcfb436887e998d12b1585d6eea49b2900b0b3bcd0591dec7c3d1983839050604051610369919061059c565b60405180910390a25050565b60008060003373ffffffffffffffffffffffffffffffffffffffff1673ffffffffffffffffffffffffffffffffffffffff16815260200190815260200160002080546103c090610780565b905011610402576040517f08c379a00000000000000000000000000000000000000000000000000000000081526004016103f990610b30565b60405180910390fd5b6000803373ffffffffffffffffffffffffffffffffffffffff1673ffffffffffffffffffffffffffffffffffffffff168152602001908152602001600020600061044c9190610491565b3373ffffffffffffffffffffffffffffffffffffffff167f44172d654fbea602d78bdc76ec074610f567ed46a250f0c59a3b99bc3591882660405160405180910390a2565b50805461049d90610780565b6000825580601f106104af57506104ce565b601f0160209004906000526020600020908101906104cd91906104d1565b5b50565b5b808211156104ea5760008160009055506001016104d2565b5090565b600080fd5b600080fd5b600073ffffffffffffffffffffffffffffffffffffffff82169050919050565b6000610523826104f8565b9050919050565b61053381610518565b811461053e57600080fd5b50565b6000813590506105508161052a565b92915050565b60006020828403121561056c5761056b6104ee565b5b600061057a84828501610541565b91505092915050565b6000819050919050565b61059681610583565b82525050565b60006020820190506105b1600083018461058d565b92915050565b600081519050919050565b600082825260208201905092915050565b60005b838110156105f15780820151818401526020810190506105d6565b60008484015250505050565b6000601f19601f8301169050919050565b6000610619826105b7565b61062381856105c2565b93506106338185602086016105d3565b61063c816105fd565b840191505092915050565b60006020820190508181036000830152610661818461060e565b905092915050565b60008115159050919050565b61067e81610669565b82525050565b60006020820190506106996000830184610675565b92915050565b600080fd5b600080fd5b600080fd5b60008083601f8401126106c4576106c361069f565b5b8235905067ffffffffffffffff8111156106e1576106e06106a4565b5b6020830191508360018202830111156106fd576106fc6106a9565b5b9250929050565b6000806020838503121561071b5761071a6104ee565b5b600083013567ffffffffffffffff811115610739576107386104f3565b5b610745858286016106ae565b92509250509250929050565b7f4e487b7100000000000000000000000000000000000000000000000000000000600052602260045260246000fd5b6000600282049050600182168061079857607f821691505b6020821081036107ab576107aa610751565b5b50919050565b600082825260208201905092915050565b7f456d7074792064617461206e6f7420616c6c6f77656400000000000000000000600082015250565b60006107f86016836107b1565b9150610803826107c2565b602082019050919050565b60006020820190508181036000830152610827816107eb565b9050919050565b600082905092915050565b7f4e487b7100000000000000000000000000000000000000000000000000000000600052604160045260246000fd5b60008190508160005260206000209050919050565b60006020601f8301049050919050565b600082821b905092915050565b6000600883026108ca7fffffffffffffffffffffffffffffffffffffffffffffffffffffffffffffffff8261088d565b6108d4868361088d565b95508019841693508086168417925050509392505050565b6000819050919050565b600061091161090c61090784610583565b6108ec565b610583565b9050919050565b6000819050919050565b61092b836108f6565b61093f61093782610918565b84845461089a565b825550505050565b600090565b610954610947565b61095f818484610922565b505050565b5b818110156109835761097860008261094c565b600181019050610965565b5050565b601f8211156109c85761099981610868565b6109a28461087d565b810160208510156109b1578190505b6109c56109bd8561087d565b830182610964565b50505b505050565b600082821c905092915050565b60006109eb600019846008026109cd565b1980831691505092915050565b6000610a0483836109da565b9150826002028217905092915050565b610a1e838361082e565b67ffffffffffffffff811115610a3757610a36610839565b5b610a418254610780565b610a4c828285610987565b6000601f831160018114610a7b5760008415610a69578287013590505b610a7385826109f8565b865550610adb565b601f198416610a8986610868565b60005b82811015610ab157848901358255600182019150602085019450602081019050610a8c565b86831015610ace5784890135610aca601f8916826109da565b8355505b6001600288020188555050505b50505050505050565b7f4e6f206461746120746f2064656c657465000000000000000000000000000000600082015250565b6000610b1a6011836107b1565b9150610b2582610ae4565b602082019050919050565b60006020820190508181036000830152610b4981610b0d565b905091905056fea264697066735822122088866faf2d2f243a89b2ee7e8d6539ee2cacecc1f53be8a4b5caef1647150be164736f6c634300081c0033",
  "linkReferences": {},
  "deployedLinkReferences": {}
}